:100000000C94C9000C94F1000C94F1000C94861827
:100010000C94AA180C94CE180C94F1000C94F100D6
:100020000C94F1000C94F1000C94F1000C94F1008C
:100030000C94F1000C94F1000C94F1000C94F1007C
:100040000C94D51A0C94F1000C94290A0C94640AAF
:100050000C94F1000C94F1000C94F1000C94F1005C
:100060000C94F1000C94F100084AD73B3BCE016E92
:1000700084BCBFFDC12F3D6C74319ABD56833DDAFF
:100080003D00C77F11BED9E4BB4C3E916BAAAABE0E
:10009000000000803F00C201000100110011000CAF
:1000A0000000E100000A0025002500210000960064
:1000B000001900390039003600127A00001F00468E
:1000C00000460044008070000022004D004D004AB0
:1000D00000004B00003600750075007200403800CB
:1000E000004A009C009C009900802500007200ECF2
:1000F00000EC00E900C0120000E900DA01DA01D7E3
:100100000160090000D701B603B603B303B00400D1
:1001100000B3036E076E076B07580200006E07DC22
:100120000EDC0ED80E2C010000DC0EC11DC11DBE60
:100130001D00000008000201000003040700000089
:1001400000000000000102040810204080010204A9
:10015000081020010204081020040404040404040C
:10016000040202020202020303030303030000006D
:100170000023002600290000000000250028002B95
:100180000000000000240027002A0000FE0A7F0F64
:10019000990C11241FBECFEFD8E0DEBFCDBF11E018
:1001A000A0E0B1E0ECEEF9E402C005900D92A838B1
:1001B000B107D9F716E0A8E8B1E001C01D92AC3252
:1001C000B107E1F711E0C0E9D1E004C02297FE01D8
:1001D0000E947120CC38D107C9F70E944B1C0C94A7
:1001E000E9240C940000FA01AA27283051F12031AB
:1001F00081F1E8946F936E7F6E5F7F4F8F4F9F4FBB
:10020000AF4FB1E03ED0B4E03CD0670F781F891FFC
:100210009A1FA11D680F791F8A1F911DA11D6A0FCA
:10022000711D811D911DA11D20D009F468943F917D
:100230002AE0269F11243019305D3193DEF6CF017C
:100240000895462F4770405D4193B3E00FD0C9F742
:10025000F6CF462F4F70405D4A3318F0495D31FDAF
:100260004052419302D0A9F7EACFB4E0A695979502
:10027000879577956795BA95C9F7009761057105D8
:1002800008959B01AC010A2E069457954795379522
:100290002795BA95C9F7620F731F841F951FA01D7C
:1002A000089580E00895AF92BF92CF92DF92EF92CF
:1002B000FF920F931F93CF93DF936C01EB017C01AF
:1002C00000E010E05C0180E8A80EB11CF50180811F
:1002D00090E0081719078CF5E881F981C80183704F
:1002E0009927892BE9F0D7016C910190F081E02DDD
:1002F0006D3561F06E35C9F46DE5CE010995E88183
:10030000F9810190F081E02D6EE30FC06DE5CE0123
:100310000995E881F9810190F081E02D6DE305C038
:100320000190F081E02DD7016C91CE0109950F5F0E
:100330001F4FBFEFEB1AFB0AC9CFF60180E090E038
:100340001192019680349105D9F7D5011C92DF9165
:10035000CF911F910F91FF90EF90DF90CF90BF90C2
:10036000AF900895CF92DF92EF92FF92CF939B01CF
:10037000FB01ED56FF4F4081518162817381FC0189
:10038000E256FF4F4083518362837383FC01EE5535
:10039000FF4FD901A557BF4FCD90DD90ED90FC9058
:1003A000C082D182E282F382FC01EA55FF4FD9017B
:1003B000A157BF4FCD90DD90ED90FC90C082D182CF
:1003C000E282F382FC01E055FF4FD901A956BF4FED
:1003D000CD90DD90ED90FC904C195D096E097F0980
:1003E000CAE0C49FD001C59FB00D1124B183A08382
:1003F000FC01EE54FF4FD901A155BF4F4D915D91C6
:100400006D917C914083518362837383FC01EE5331
:10041000FF4FD901A253BF4F4D915D916D917C91DA
:100420004083518362837383FC01E555FF4FD901FB
:10043000A154BF4F5C91D901A657BF4F4C916AE0C0
:10044000569F400D11244083D901AC57BF4F2C91CA
:10045000FC01EA53FF4F208311968C911197818301
:1004600012968C911297828313968C9113978383A3
:1004700014968C911497848315968C918583CF91D3
:10048000FF90EF90DF90CF9008952F923F924F9280
:100490005F926F927F928F929F92AF92BF92CF9214
:1004A000DF92EF92FF920F931F93CF93DF9300D0D1
:1004B00000D0CDB7DEB71C016131710509F423C14D
:1004C0000CF094C06230710509F4F2C00CF045C024
:1004D0006130710509F06EC2FC01E256FF4F608188
:1004E0007181828193810E94431E4B015C0120E057
:1004F00030E04AE754E40E94A81D0E94101E6B01E0
:100500007C01882777FD8095982F0E94431E20E06C
:1005100030E04AE754E40E941F1F9B01AC01C50173
:10052000B4010E94DD1C0E94101EF101E058FF4F33
:100530008081D101A80FB11D9EE59C9321E0119609
:100540002C9311971296CC9212971396DC921397D4
:1005500014969C93149799E00BC26530710509F4C9
:10056000B7C06031710509F025C2FC01E055FF4FAD
:100570006081718180E090E00E94411E4B015C012E
:1005800020E030E04AE754E40E94A81D0E94101EBB
:100590006B017C01882777FD8095982F0E94431E70
:1005A00020E030E04AE754E40E941F1F9B01AC01A9
:1005B000C501B4010E94DD1C0E94101EF101E0582B
:1005C000FF4F8081D101A80FB11D9EE59C9320E1D2
:1005D00011962C9311971296CC9212971396DC9247
:1005E000139714969C93149791E2C2C164317105DC
:1005F00009F486C14CF46231710509F4C5C0633158
:10060000710509F41BC1D6C16832710509F4BAC17C
:100610006A33710509F0CEC1FC01E453FF4F6081DC
:10062000718180E090E00E94411E6B017C0122EC10
:1006300037E146E05FE30E941F1F9B01AC015101BF
:10064000F0E8AF0EB11CD5011C91210E311C0EE556
:10065000F10100838AE38183CA01B90129833A83C6
:100660004B835C830E94101ED10112966C931297EB
:1006700013967C93139714960C9314978BE315960B
:100680008C9329813A814B815C81C701B6010E941C
:10069000DD1C20E030E040E251E40E941F1F0E9478
:1006A000101EF101668377831C5FD5011C9382C104
:1006B000AC0140585F4FDA012C91FC01E20FF11DB3
:1006C0008EE5808382E08183BAEA2B0E311C0FC055
:1006D000AC0140585F4FDA012C91FC01E20FF11D93
:1006E0008EE5808385E08183BBEA2B0E311CD1012E
:1006F0003C91832F992787FD9095328393832C5FBC
:10070000FA01208357C1FC01EE54FF4F60817181D3
:10071000828193810E94411E4B015C0120E030E008
:1007200048EC52E40E94A81D0E94101E6B017C013F
:10073000882777FD8095982F0E94431E20E030E0A7
:1007400048EC52E40E941F1F9B01AC01C501B4019B
:100750000E94DD1C0E94101EF101E058FF4F8081B5
:10076000D101A80FB11D9EE59C9321E111962C9318
:1007700011971296CC9212971396DC9213971496B7
:100780009C93149799E1F4C0FC01EA55FF4F8080D7
:100790009180A280B380C501B4010E94431E2B0149
:1007A0003C0120E836E948E15BE40E94A81D0E9474
:1007B000101E6B017C01882777FD8095982F0E9481
:1007C000431E20E836E948E15BE40E941F1F9B01BD
:1007D000AC01C301B2010E94DD1C0E94101E9601F3
:1007E000D7FE04C0222733272C193D0989019B011C
:1007F00077FF04C022273327261B370B7101F0E84F
:10080000EF0EF11CD7015C91852F90E0F101E80F0C
:10081000F91F4EE5408362E16183028313834483C1
:100820006AE1658326833783408722E221870A961F
:10083000B7FE02C027E55BC025E459C0FC01EE55B8
:10084000FF4F80809180A280B380C501B4010E94D7
:10085000431E2B013C0120E836E948E15BE40E949D
:10086000A81D0E94101E6B017C01882777FD8095D2
:10087000982F0E94431E20E836E948E15BE40E947D
:100880001F1F9B01AC01C301B2010E94DD1C0E942D
:10089000101E9601D7FE04C0222733272C193D09CC
:1008A00089019B0177FF04C022273327261B370BC2
:1008B0007101F0E8EF0EF11CD7015C91852F90E0FB
:1008C000F101E80FF91F4EE5408363E16183028384
:1008D000138344836BE1658326833783408723E258
:1008E00021870A96B7FE02C023E501C02EE4820DDF
:1008F000931DDC012C931386545FF70150835AC07B
:10090000FC01EE53FF4F80809180A280B380C5012F
:10091000B4010E94101E6B017C01882777FD809531
:10092000982F0E94431E9B01AC01C501B4010E9497
:10093000DD1C20E030E04AE754E40E941F1F0E94C3
:10094000101EF101E058FF4F8081D101A80FB11DA9
:100950009EE59C9324E111962C9311971296CC92CC
:1009600012971396DC92139714969C9314979CE11C
:1009700015969C93159716966C93169717967C93DD
:10098000885F17C0AC0140585F4FDA018C91F101CC
:10099000E80FF11D9EE5908398E29183BEEC2B0E4B
:1009A000311CD1012C9111969C91228393838C5FF1
:1009B000FA0180830F900F900F900F90DF91CF91ED
:1009C0001F910F91FF90EF90DF90CF90BF90AF906D
:1009D0009F908F907F906F905F904F903F902F905F
:1009E00008950F931F93CF93DF93EC018B0160E188
:1009F00070E00E94450262E070E0CE010E94450274
:100A000065E070E0CE010E94450268E270E0CE0130
:100A10000E9445026AE370E0CE010E944502FE0199
:100A2000E058FF4F808191E0980F9083FE01E80F1E
:100A3000F11D8EE58083B801CE01DF91CF911F912A
:100A40000F910C9453010F931F93CF93DF93EC01FD
:100A50008B0164E170E00E94450263E170E0CE0129
:100A60000E94450262E170E0CE010E94450261E110
:100A700070E0CE010E94450261E070E0CE010E946C
:100A80004502FE01E058FF4F808191E0980F90836E
:100A9000FE01E80FF11D8EE58083B801CE01DF91E4
:100AA000CF911F910F910C9453012F923F924F922F
:100AB0005F926F927F928F929F92AF92BF92CF92EE
:100AC000DF92EF92FF920F931F93CF93DF93CDB7F7
:100AD000DEB72E970FB6F894DEBF0FBECDBF9C01D8
:100AE0008B018D873E870E941F1B4B015C012D856A
:100AF0003E85790181E8E80EF11CF7018081918142
:100B0000A281B38188539F4FAF4FBF4F881599057E
:100B1000AA05BB0570F4B801C9010E94F1040E9446
:100B20001F1BD7016D937D938D939C9313973E85E7
:100B30002D857901B5E8EB0EF11CF70180819181DB
:100B4000A281B38188519C4FAF4FBF4F8815990543
:100B5000AA05BB0580F4B801C9012D873E870E9414
:100B600023050E941F1BD7016D937D938D939C934A
:100B700013973E852D857901B9E9EB0EF11C29010A
:100B8000EAE94E0E511CC90183579F4F9A87898706
:100B9000D901A257BF4FBC87AB871901B3ED2B0E0C
:100BA000311C4901EFE88E0E911CC9018C529F4FF8
:100BB0009A838983690190E9C90ED11CD901AB528E
:100BC000BF4FBC83AB835901B1E9AB0EB11CF90136
:100BD000E053FF4FFE83ED83C9018F529F4F9887EB
:100BE0008F83D801ED91FC910480F581E02DC8013F
:100BF0002D873E870995892B09F4A6C0F7016080EF
:100C0000712CD801ED91FC910680F781E02DC8018F
:100C100009952D853E85620E731EF301E357FF4F44
:100C20008083F2019081D7018C91F901E80FF11DC9
:100C3000E357FF4F992339F0808190E28927808321
:100C4000F20110820AC090819D3721F481E0D20127
:100C50008C9303C08F5FF7018083A985BA858C913F
:100C60008E3709F06EC0F70180818B3009F09DCF7F
:100C7000AB85BC858C918B3F09F440C0C0F4893FA3
:100C800009F44AC08A3F09F059C0D4018C91F90196
:100C9000EA52FF4F8083F6018081F901E952FF4F4C
:100CA0008083D5018C91F901E852FF4F46C08C3FFB
:100CB000A9F08E3F09F042C0D4018C91F901E456AD
:100CC000FF4F8083F6018081F901E356FF4F808357
:100CD000D5018C91F901E556FF4F2FC0F4018081B9
:100CE000AD81BE818C93F6018081AF81B8858C93F4
:100CF000F5018081F901EE52FF4F1FC0D4018C91A4
:100D0000F1018083D6018C91E981FA818083D5013C
:100D10008C91EB81FC8111C0F4018081F901E752D3
:100D2000FF4F8083D6018C91F901E652FF4F8083FB
:100D3000F5018081F901E552FF4F8083F7011082B0
:100D400050CFD7011C924DCF2E960FB6F894DEBF30
:100D50000FBECDBFDF91CF911F910F91FF90EF900C
:100D6000DF90CF90BF90AF909F908F907F906F90CB
:100D70005F904F903F902F900895FC011082118258
:100D8000128213821482158208950F931F93FC011F
:100D9000842F8F7380838A019B01007C1F70222720
:100DA000332786E036952795179507958A95D1F7CD
:100DB00001838A019B010027107F222733279CE0B3
:100DC00036952795179507959A95D1F702838A014D
:100DD0009B01002711272F71332723838A019B0151
:100DE00000271127207E3170A5E1369527951795AC
:100DF0000795AA95D1F70483B9E17695679557953C
:100E00004795BA95D1F745831F910F910895FC013D
:100E100020E030E011922F5F3F4F20383105D1F7AD
:100E2000FC01E058FF4F108208952F923F924F929D
:100E30005F926F927F928F929F92AF92BF92CF926A
:100E4000DF92EF92FF920F931F93CF93DF93CDB773
:100E5000DEB72E970FB6F894DEBF0FBECDBF8C0164
:100E60007E876D87403209F46BC1403309F4D7C1E6
:100E7000403109F01BC2DB01D7964C91D797D09631
:100E80008C911801BAE82B0E311CF1018083FB0113
:100E900030E0CF016D857E85861B970B8217930707
:100EA00024F4808184278193F4CFDB014D915D91FF
:100EB0006D917C91C8018C579F4F0E94C506ED85AE
:100EC000FE8584819581A681B781F801E557FF4FA2
:100ED00080839183A283B383ED85FE858085918590
:100EE000A285B385F801E157FF4F80839183A283E8
:100EF000B383ED85FE8584859585A685B7859801A4
:100F00002D563F4F3E832D83F90180839183A28329
:100F1000B383ED85FE8580899189A289B389F80123
:100F2000E556FF4F80839183A283B383ED85FE85D1
:100F300084899589A689B789F801E156FF4F808396
:100F40009183A283B383AD85BE855C96CD90DD9001
:100F5000ED90FC905F97F801ED55FF4FC082D18274
:100F6000E282F38290968D909D90AD90BC90939785
:100F7000F801E955FF4F80829182A282B382949654
:100F80006D917D918D919C91979769837A838B83E5
:100F90009C83F801E555FF4F6083718382839383BF
:100FA000A7019601C701B6010E94E71F2B013C0172
:100FB000A5019401C501B4010E94E71F460E571E0A
:100FC000681E791EC301B2010E94431E0E94861F43
:100FD000980121553F4F38872F830E94151EAF81FE
:100FE000B8856D937D938D939C93139729813A8156
:100FF0004B815C81CA01B9010E94E71F640D751D18
:10100000861D971D0E94431E0E94861F3801B3EB68
:101010006B0E711C0E94151EF30160837183828325
:101020009383C501B4010E94431E9B01AC01C7011B
:10103000B60129873A874B875C870E94431E298522
:101040003A854B855C850E94511D7801FEECEF0EC0
:10105000F11C905820E030E044E353E40E941F1F4D
:101060002BED3FE049E450E40E94A81DD7016D93A9
:101070007D938D939C931397ED85FE8580A591A517
:10108000F801E954FF4F91838083AD85BE859A9620
:101090008D919C919B97F801E754FF4F918380833A
:1010A0009C968D919C919D97F801E554FF4F9183FB
:1010B00080839E968D919C919F97F801E354FF4FFA
:1010C000918380837801BFEBEB0EF11CED85FE85EB
:1010D00082A990E0D7018D939C9384A9F801ED53E8
:1010E000FF4F80834AE050E0F10160818DE593E09D
:1010F0000E94251CA8014F535F4FDA018D919C91EE
:10110000019709F0D3C0F7012081318123303105E7
:1011100009F0CCC0D1018C91873008F4C7C00956C2
:101120001F4FED81FE8180819181A281B381F80101
:1011300080839183A283B383DA012D933C93B6C05D
:10114000ED85FE85558180E090E030E082179307C1
:101150004CF48530910519F0408145274083019674
:101160003196F4CFAD85BE856D917C911197F801D4
:10117000EC53FF4F718360831296ED90FC901397B0
:10118000F801EA53FF4FF182E082F801E853FF4F84
:1011900014968D919C9115979183808380E090E0C7
:1011A0000E94411E9B01AC01B70180E090E02987BD
:1011B0003A874B875C870E94411E29853A854B857B
:1011C0005C850E94511D905820E030E044E353E4D8
:1011D0000E941F1F2BED3FE049E450E40E94A81D30
:1011E0006B017C0106531F4FF8016083718382837A
:1011F000938320E030E0A9010E94A41D87FF56C020
:1012000020E030E044EB53E4C701B6010E94DE1C4D
:10121000D8016D937D938D939C93139747C0ED8573
:10122000FE8580851F928F9381851F928F93828583
:101230001F928F9383851F928F938BE4E82E81E01A
:10124000F82EFF92EF92F801EE52FF4F81818F93BB
:1012500080818F930E948C22AD85BE8514968C91DF
:1012600014971F928F9315968C9115971F928F93B9
:1012700016968C9116971F928F9317968C911F92AA
:101280008F93FF92EF92F801EC52FF4F81818F9381
:1012900080818F930E948C22F801EA52FF4F81E0F7
:1012A00080830FB6F894DEBF0FBECDBF2E960FB66B
:1012B000F894DEBF0FBECDBFDF91CF911F910F918C
:1012C000FF90EF90DF90CF90BF90AF909F908F9066
:1012D0007F906F905F904F903F902F9008957F92F6
:1012E0008F929F92AF92BF92CF92DF92EF92FF9236
:1012F0000F931F93CF93DF93EC017B018C01005878
:101300001F4F4C0181E8880E911C6E01A2E8CA0EA5
:10131000D11C5E01B3E8AB0EB11CD701ED91FC917D
:101320000480F581E02DC7010995892B09F482C05D
:10133000D701ED91FC910680F781E02DC701099559
:10134000782EF8019081923040F4FE01E90FF11DF2
:1013500070829F5FD8019C93E0CF8881853509F02A
:101360005DC089818A3A09F059C0492F50E0E1E017
:10137000E90F943038F4DE01A40FB51F7C92D80138
:10138000EC93CBCF2B81D4012C93DE01A40FB51F9E
:101390007C92D801EC93213620F0CE010E94070701
:1013A00049C0F0E030E0C9010696E817F90709F0F6
:1013B000B4CFD6011C92D5011C9282E090E02D5F43
:1013C0003F4F2817390774F0DE01A80FB91F4C9161
:1013D000D6015C91450F4C93D5015C91540F5C9301
:1013E0000196EFCF3297EC0FFD1F20813181F6017E
:1013F000808191812817390769F4BE016C5F7F4FA6
:101400002B814A81CE010E941507CE010E94070759
:1014100081E011C0CE010E9407077FCFCE010E945C
:101420000707D8018C91FE01E80FF11D70828F5FD4
:101430008C9373CF80E0DF91CF911F910F91FF903C
:10144000EF90DF90CF90BF90AF909F908F907F9064
:1014500008951F920F920FB60F9211242F933F936E
:101460004F938F939F93EF93FF934091C60080918A
:101470008103909182030196209185033091860328
:10148000822393232091830330918403821793074F
:1014900079F02091810330918203E0918703F091EC
:1014A0008803E20FF31F40839093820380938103AC
:1014B000FF91EF919F918F914F913F912F910F90BD
:1014C0000FBE0F901F9018951F920F920FB60F929C
:1014D00011242F933F938F939F93EF93FF9320912A
:1014E0007B0330917C038091790390917A032817D4
:1014F0003907E9F080917B0390917C03E0917F03B1
:10150000F0918003E80FF91F80818093C6008091DD
:101510007B0390917C03019620917D0330917E03A3
:101520008223932390937C0380937B0310C02091AC
:10153000790330917A0380917B0390917C03281783
:10154000390729F48091C1008F7D8093C100FF91FC
:10155000EF919F918F913F912F910F900FBE0F9020
:101560001F9018950F931F936DE573E086E892E046
:101570000E946F098823A1F066E872E08AEA91E090
:101580000E94B20161E08DE00E949F1A4AEA51E098
:1015900066E872E080918C0190918D010E9451016A
:1015A0000E941F1B009188011091890120918A01DE
:1015B00030918B0108531F4F2F4F3F4F06171707CE
:1015C00028073907C0F460E08DE00E949F1A60E0B0
:1015D0008EE00E949F1A6EE871E08AEA91E00E9414
:1015E00055050E941F1B60938801709389018093A9
:1015F0008A0190938B011F910F9108958F92AF9262
:10160000CF92EF92FF920F931F9380E2882E98E97A
:10161000A92ECC24C39421ECE22EF12C00EC10E096
:1016200024EC30E045EC50E060E08DE593E00E9472
:10163000E00D10920603109207038AE093E00E94E7
:10164000BD06109210031092110310921203109213
:1016500013031092140310921503109216031092A4
:101660001703109218031092190310921A03109284
:101670001B0310921C0310921D0310921E03109264
:101680001F03109220031092210310922203109244
:101690002303109224031092250310922603109224
:1016A0002703109228031092290310922A03109204
:1016B0002B0310922C0310922D0310922E031092E4
:1016C0002F031092300310923103109232031092C4
:1016D00033031092340310923503109236031092A4
:1016E0003703109238031092390310923A03109284
:1016F0003B0310923C0310923E0310923D03109264
:10170000400310923F031092420310924103109243
:1017100044031092430381E090E09093460380934A
:101720004503909348038093470310924903109216
:101730004B0310924A0310924D0310924C031092E7
:101740004F0310924E0310925003109251031092C7
:1017500052031092530310925403109255031092A7
:101760005603109257038DE090E00E94DB1C90938B
:101770005903809358038DE090E00E94DB1C909306
:101780005B0380935A0380E090E0E0915803F0916E
:101790005903E80FF91F1082E0915A03F0915B039F
:1017A000E80FF91F108201968D30910571F71092A4
:1017B0002A0210922B0210922C0210922D021092EB
:1017C0002E0210922F0210923002109231021092CB
:1017D00032021092330210923402109235021092AB
:1017E0003602109243021092440210924502109267
:1017F000460210924702109248021092490210923B
:101800004A0210924B0210924C0210924D0210921A
:101810004E0210924F0210925002109251021092FA
:1018200052021092530210925402109255021092DA
:1018300057021092560210925902109258021092BA
:101840005B0210925A0210925C0210925D0210929A
:101850005E0210925F028CE0E0E6F2E0DF011D9292
:101860008A95E9F710926C0210926D0210926E0246
:1018700010926F0280E792E00E94BD0610927702FC
:1018800010927602109279021092780210927A02E7
:1018900010927B0210927C0210927D0210927E02C6
:1018A00010927F02109280021092810210928202A6
:1018B0001092830210928402109285020E941F1BD4
:1018C00060932B0270932C0280932D0290932E0232
:1018D0000E941F1B6E5C7F4F8F4F9F4F60932F02A4
:1018E0007093300280933102909332020E941F1B4A
:1018F0006C597F4F8F4F9F4F609333027093340228
:101900008093350290933602EAEAF1E01192B2E058
:10191000EA32FB07D9F721E04BE06AE08EE891E07C
:101920001F910F91FF90EF90CF90AF908F900C94FC
:1019300044198EE891E00C94361ACF93DF9340E07F
:1019400052EC61E070E08DE593E00E94280D40E8E4
:1019500055E260E070E08EE891E00E9474190E9408
:101960001F1B609388017093890180938A01909373
:101970008B0189E690E00E94D91CEC0168E571E0DA
:101980000E94C31C1B861C861F86198A42E050E0F9
:1019900060E070E04A8B5B8B6C8B7D8B19A61BAA79
:1019A0001AAA83E791E099AB88AB1DAAFE01E35B1D
:1019B000FF4F1082118212821382FE01EF5AFF4FF5
:1019C0001082118212821382FE01EB5AFF4F1082A5
:1019D000FE01EA5AFF4F1082FE01E95AFF4F1082C2
:1019E000FE01E85AFF4F1082118212821382FE011B
:1019F000E45AFF4F1082118212821382FE01E05AD4
:101A0000FF4F1082118212821382FE01EC59FF4FA8
:101A10001082FE01EB59FF4F1082FE01EA59FF4F81
:101A20001082FE01E959FF4F1082FE01E859FF4F75
:101A3000108260E080E10E94661A60E081E10E940D
:101A4000661AD0938D01C0938C01DF91CF910895D8
:101A50000F931F93DC01ED91FC910684F785E02D37
:101A600000E410E020E830E009951F910F910895FF
:101A7000DC015B962C915B97222379F05796ED91D0
:101A8000FC9158978081918122813381821B930B35
:101A9000248135818223932308958FEF9FEF08954A
:101AA000DC015B962C915B97222359F05796ED91C0
:101AB000FC915897208131818281938128173907C1
:101AC00019F48FEF9FEF089582819381A681B781EA
:101AD000A80FB91F8C91228133812F5F3F4F448122
:101AE0005581242335233383228390E00895DC013C
:101AF0005B962C915B97222359F05796ED91FC91C0
:101B0000589720813181828193812817390719F4F0
:101B10008FEF9FEF0895828193810680F781E02DFA
:101B2000E80FF91F808190E00895CF93DF93DC01E7
:101B30005796ED91FC915897228133813183208310
:101B400059960D90BC91A02D8081918113969C9304
:101B50008E931297DF91CF910895FC01838D8111AF
:101B600003C0862F90E00895A18DB28D2D913C91F8
:101B700011972F5F3F4F14964D915C911597242339
:101B8000352312964D915C91139724173507C9F3AD
:101B90004D915C91119716960D90BC91A02DA40FBC
:101BA000B51F6C93A18DB28D11963C932E93A28993
:101BB000B3898C919589892B8C9380E090E008956E
:101BC0004F925F926F927F928F92AF92CF92EF92ED
:101BD000FF920F931F93CF93DF93CDB7DEB7FC0136
:101BE0001382128288EE482E83E0582E612C712CCD
:101BF00044825582668277828DE591E0918380836D
:101C00005587448737872687118B008BF38AE28AB2
:101C1000C68AA48A858A88E0689FB00111249B0146
:101C20002F573C4F308F278B818D928DDC0113967F
:101C30001C921E92129711961C921E9267587C4F0E
:101C4000728F618FF9011382128211821082DF91EB
:101C5000CF911F910F91FF90EF90CF90AF908F9009
:101C60007F906F905F904F900895CF93DF93EC013A
:101C70001B821A8219821882A1E0E1E0F0E02A2F8B
:101C8000AF010A2E02C0440F551F0A94E2F7CB01A0
:101C90006130B2E07B0710F080E092E0481759070E
:101CA00010F4AF5FECCF81E090E002C0880F991F85
:101CB0002A95E2F79C01215031093D832C830E9433
:101CC00075209F838E8321E0892B09F420E0822FE9
:101CD000DF91CF9108952F923F924F925F926F9232
:101CE0007F928F929F92AF92BF92CF92DF92EF92AC
:101CF000FF920F931F93CF93DF93EC016A017B0157
:101D000059018B8D882339F0E881F9810088F189A8
:101D1000E02DCE010995A114B10419F460E870E03A
:101D200001C0B5018F89988D0E94350E882369F016
:101D30000115110519F460E470E001C0B801898D46
:101D40009A8D0E94350E811119C0E881F9810088B1
:101D5000F189E02DCE01DF91CF911F910F91FF907E
:101D6000EF90DF90CF90BF90AF909F908F907F903B
:101D70006F905F904F903F902F90099481E08B8FF0
:101D800081E4C81682E4D8068FE0E806F1049CF0EE
:101D9000A701960163E0220F331F441F551F6A9568
:101DA000D1F760E074E284EF90E00E942D20890179
:101DB0000150110949C090E4892E92E4992E9FE0C8
:101DC000A92EB12CC501B401A70196010E942D20B6
:101DD00029013A01190181E0281A310860E874E804
:101DE0008EE190E0A70196010E942D20890101500B
:101DF00011099201442737FD4095542FC501B401C4
:101E00000E942D205601A21AB30AB7FE03C0B19456
:101E1000A194B10898012F5F3F4F442737FD4095AB
:101E2000542F60E874E88EE190E00E942D20C21AE1
:101E3000D30AD7FE03C0D194C194D108CA14DB04DD
:101E40001CF0810180E001C081E0E889F9898823E4
:101E500049F081E090E00E8802C0880F991F0A9433
:101E6000E2F701C080E08083EC85FD851083EE857C
:101E7000FF850083EA89FB8980819C89892B808387
:101E8000DF91CF911F910F91FF90EF90DF90CF9056
:101E9000BF90AF909F908F907F906F905F904F908A
:101EA0003F902F900895CF93DF93EC011B821A820D
:101EB000198218821D821C828E819F81009721F0D9
:101EC0000E940D211F821E82DF91CF910895CF9332
:101ED000DF93EC01EA89FB8990818D892C89822B23
:101EE0008095892380838F89988D0E94530F898DD7
:101EF0009A8D0E94530F1B8EDF91CF9108951092FF
:101F00008E0310928F03109292031092940382E03A
:101F100090E0A0E0B0E08093950390939603A093A7
:101F20009703B09398031092AC031092B6031092EB
:101F3000B50383E791E09093B4038093B3031092C9
:101F4000B80308958091D603882399F14091060142
:101F500050910701609108017091090129ED33E06A
:101F60008091D7039091D8030E94C916882319F154
:101F70004091D2035091D3036091D4037091D50363
:101F8000411551056105710591F029ED33E080910E
:101F9000D7039091D8030E94C916882361F010924C
:101FA000D2031092D3031092D4031092D50310924F
:101FB000D60381E0089580E00895CF92DF92EF92FA
:101FC000FF92CF936B017C01C42F80910601909109
:101FD0000701A0910801B09109018C159D05AE057E
:101FE000BF05D1F00E94A20F811102C080E01AC08B
:101FF00029ED33E0B701A6018091D7039091D80372
:102000000E947616882391F3C0920601D0920701B0
:10201000E0920801F09209018091D6038C2B809305
:10202000D60381E0CF91FF90EF90DF90CF9008959D
:102030008F929F92AF92BF92CF92DF92EF92FF92D8
:102040000F931F93CF93DF938C016A017B01E9010A
:10205000FC0181859285A385B4850196A11DB11DE2
:1020600084179507A607B70710F480E058C0F80159
:1020700043895489658976898789803129F4BB270A
:10208000AF2D9E2D8D2D09C0D701C60127E0B69535
:10209000A795979587952A95D1F74C015D01840EF8
:1020A000951EA61EB71EC501B40180900601909032
:1020B0000701A0900801B0900901681579058A050B
:1020C0009B0589F4F8018789803199F4DD24EE2499
:1020D000FF24F601EE0FFF1FE752FC4F8081918134
:1020E000A0E0B0E017C040E00E94DD0F8111EACF10
:1020F000BCCFE894C7F8DD24EE24FF24F601EE0FF0
:10210000FF1FEE0FFF1FE752FC4F80819181A281DC
:10211000B381BF7088839983AA83BB8381E0DF91F9
:10212000CF911F910F91FF90EF90DF90CF90BF90D4
:10213000AF909F908F9008954F925F926F927F9291
:102140008F929F92AF92BF92CF92DF92EF92FF92C7
:102150000F931F93CF93DF93EC016A017B0128015A
:102160003901423051056105710508F474C0498593
:102170005A856B857C854F5F5F4F6F4F7F4F4C1546
:102180005D056E057F0508F466C08B889C88AD8868
:10219000BE888F89803129F477276F2D5E2D4D2DD4
:1021A00009C0B701A601E7E0769567955795479571
:1021B000EA95D1F7840E951EA61EB71E4091060122
:1021C00050910701609108017091090184169506EC
:1021D000A606B70671F48F89803199F4DD24EE24C8
:1021E000FF24F601EE0FFF1FE752FC4F51824082A1
:1021F00018C040E0C501B4010E94DD0F8111EBCF92
:102200002AC0E894C7F8DD24EE24FF24F601EE0F7F
:10221000FF1FEE0FFF1FE752FC4F40825182628288
:1022200073828091D60381608093D6038A8982303D
:1022300080F08D819E81AF81B885880D991DAA1D82
:10224000BB1D8093D2039093D303A093D403B09388
:10225000D50381E001C080E0DF91CF911F910F9104
:10226000FF90EF90DF90CF90BF90AF909F908F90B6
:102270007F906F905F904F9008952F923F924F9272
:102280005F926F927F929F92AF92BF92CF92DF92B6
:10229000EF92FF920F931F93CF93DF93CDB7DEB7EB
:1022A00060970FB6F894DEBF0FBECDBF5C014D87BF
:1022B0005E876F87788B1901D9014D905D906D9085
:1022C0007C90411451046104710431F0BFEF4B1A4A
:1022D0005B0A6B0A7B0A10C0FC014080518062805F
:1022E0007380992493940D851E852F85388901303C
:1022F00011052105310509F0912CD50119962D9173
:102300003D914D915C911C972F5F3F4F4F4F5F4F19
:1023100029873A874B875C87730162011D821E8281
:102320001F821886F50181859285A385B4850D816C
:102330001E812F813885081719072A073B0708F0E7
:1023400056C029853A854B855C852C153D054E0583
:102350005F0550F4A2E0CA2ED12CE12CF12CB2E0A2
:102360004B2E512C612C712C9E012F5F3F4FB701DA
:10237000A601C5010E9418108823C9F149815A811C
:102380006B817C81D701C6010196A11DB11D452B32
:10239000462B472B19F02C013D010FC0AC01BD01AC
:1023A00044195509660977090D851E852F853889D9
:1023B000401751076207730779F02D813E814F81E5
:1023C00058852F5F3F4F4F4F5F4F2D833E834F8385
:1023D00058876C017D01A6CF0FEF1FEF2FEF3FE075
:1023E000B701A601C5010E949C10811118C080E0B0
:1023F00041C0D701C6010197A109B1098D839E8310
:10240000AF83B88797018601AC01BD01C5010E9469
:102410009C10882361F3CD80DE80EF80F8844C141B
:102420005D046E047F0428F3D1014D915D916D919F
:102430007C91411551056105710599F4F1014082C6
:102440005182628273829920A1F0FFEF4F1A5F0AD6
:102450006F0A7F0AD5014D925D926D927C9213971F
:1024600008C093018201C5010E949C108111E6CF32
:10247000BECF81E060960FB6F894DEBF0FBECDBF31
:10248000DF91CF911F910F91FF90EF90DF90CF9050
:10249000BF90AF909F907F906F905F904F903F90D4
:1024A0002F900895CF93DF93EC019C012A5F3F4F5B
:1024B00041E050E060E070E08B8D9C8D0E943D110A
:1024C0008823A1F04F89588D698D7A8D452B462B35
:1024D000472B71F44E815F81688579854F8B588FCA
:1024E000698F7A8F8C8180688C8302C080E001C004
:1024F00081E0DF91CF910895CF93DF93EC01462FD8
:102500006E857F85888999890E94DD0F882341F037
:102510008A8920E2829FC001112487529C4F02C009
:1025200080E090E0DF91CF9108954F925F926F929B
:102530007F92AF92BF92CF92DF92EF92FF920F9372
:102540001F93CF93DF93EC016A017B012D8122233E
:1025500009F457C08B899C89AD89BE89841795077A
:10256000A607B70708F44DC04EC08A859B85AC8589
:10257000BD85EB8DFC8DE585F0E03996AC01BD01A4
:1025800041505109610971090E2E04C07695679575
:10259000579547950A94D2F7970186010150110982
:1025A0002109310904C03695279517950795EA95B5
:1025B000D2F70417150726073707B0F58F89988DCE
:1025C000A98DBA8D8E839F83A887B9872801390189
:1025D0005E0186E0A80EB11C41145104610471042F
:1025E00061F14E815F816885798595018B8D9C8D28
:1025F0000E94181091E0491A510861087108811170
:10260000EBCF80E01FC02230C1F0C114D104E1043F
:10261000F10409F0AACF1E821F82188619861A8635
:102620001B861C861D860DC0892B8A2B8B2B31F2B5
:10263000041B150B260B370BC9CFCA86DB86EC862D
:10264000FD8681E0DF91CF911F910F91FF90EF9078
:10265000DF90CF90BF90AF907F906F905F904F9042
:1026600008950F931F93CF93DF93EC018D818823FF
:10267000C9F18C8187FF30C061E0CE010E947C12DD
:102680008C01009779F18D81823048F44B895C8907
:102690006D897E89F801448F558F668F778F4F89BA
:1026A000588D698D7A8DF801538F428F758B648BAD
:1026B000E091D905F091DA05309759F0B8016A5EDA
:1026C0007F4FC80148960995F801808D918D938BB5
:1026D000828B8C818F778C83DF91CF911F910F91AB
:1026E0000C94A20F80E0DF91CF911F910F9108957C
:1026F0002F923F924F925F926F927F928F929F9212
:10270000AF92BF92CF92DF92EF92FF920F931F93FF
:10271000CF93DF9300D000D01F92CDB7DEB78C01EE
:102720007B013A01DC0115968C9115978130C9F433
:1027300014968C9181FF15C082FF1BC0F80143895C
:1027400054896589768982859385A485B5858417A2
:102750009507A607B70769F0C8010E949512811175
:1027600008C081E090E0F8019383828380E090E0EC
:1027700046C1630180C0D8015B968D919C915C97A6
:10278000FC01F481F150B501A40129E0769567952B
:10279000579547952A95D1F7F423FD8321E092229E
:1027A000FF2309F474C080E092E08819990956016A
:1027B0008C159D0508F45C01D8015B96ED91FC91A8
:1027C0005C9716962D903D904D905C901997B2E0D5
:1027D0002B1A310841085108058404C0220C331C0F
:1027E000441C551C0A94D2F786859785A089B18927
:1027F000280E391E4A1E5B1EED812E0E311C411C17
:10280000511CA114F2E0BF0609F088C080910601B6
:1028100090910701A0910801B091090182159305DB
:10282000A405B50559F48FEF9FEFDC0180930601F5
:1028300090930701A0930801B09309019701B20199
:10284000A1018091D7039091D8030E94C9168823D3
:1028500009F487CF9EEFF91ACA18DB08F8018285C0
:102860009385A485B5858A0D9B1DA11DB11D828709
:102870009387A487B587D8011A968D909D90AD90C7
:10288000BC901D97C114D10409F075CF8AC0811482
:10289000910409F088CF16964D915D916D917C91D0
:1028A0001997411551056105710559F457968D9198
:1028B0009D910D90BC91A02D0097A105B10541F50A
:1028C00021C09E012F5F3F4F0E941810882309F4FA
:1028D0004ECF89819A81AB81BC81F801238D348DE3
:1028E000F9012789203129F448EF5FEF60E070E0BB
:1028F00004C048EF5FEF6FEF7FE084179507A607EE
:10290000B70730F0C8010E94521281114CCF29CF75
:10291000F80186839783A087B18745CF81149104FE
:1029200029F5D8011A964D915D916D917C911D9775
:1029300053968D919D910D90BC91A02D48175907EC
:102940006A077B0798F00E94A20F882309F409CF39
:10295000209206013092070140920801509209012D
:102960008091D60381608093D60308C041E0C20104
:10297000B1010E94DD0F882309F4F3CEC401875210
:102980009C4FD7019C012A0D3B1DFC01E217F30768
:1029900019F04D914193FACFE81BF90BEE0EFF1E93
:1029A0005BCF53968D919D910D90BC91A02DF80118
:1029B000248188159905AA05BB0538F4838A948A71
:1029C000A58AB68A206824830CC08091D90590918D
:1029D000DA05892B31F06114710419F02068F801CF
:1029E0002483D80114968C9183FD02C0C30107C0D3
:1029F000C8010E943113882309F4B3CEF7CF0F909A
:102A00000F900F900F900F90DF91CF911F910F912A
:102A1000FF90EF90DF90CF90BF90AF909F908F90FE
:102A20007F906F905F904F903F902F900895CF933D
:102A3000DF931F92CDB7DEB7698341E050E0BE015E
:102A40006F5F7F4F0E9478130F90DF91CF910895B1
:102A50008EBD0DB407FEFDCF8EB508958FEF0C949B
:102A6000281561E0FC0184810C949F1A60E0FC0150
:102A700084810C949F1ACF93DF93EC018E8188237D
:102A800089F08F8198859C012F5F3F4F38872F8376
:102A90008230924018F40E942E15F3CFCE010E948E
:102AA00031151E82DF91CF9108950F931F93CF931D
:102AB000DF93EB010E941F1B8B010E942E158F3F9D
:102AC00049F00E941F1B601B710B6C177D07A8F358
:102AD00080E001C081E0DF91CF911F910F910895B7
:102AE000CF92DF92FF920F931F93CF93DF9300D08B
:102AF00000D0CDB7DEB76C01F62E29833A834B8325
:102B00005C830E943B15C6010E9436156CE271E0A1
:102B1000C6010E9455158F2D80640E94281508E17A
:102B200010E05C814B813A812981DA01C901002ED4
:102B300004C0B695A795979587950A94D2F72983EF
:102B40003A834B835C830E94281508501109298120
:102B50003A814B815C81083F8FEF180731F7FF20E6
:102B600029F0E8E0FE1621F08FEF03C085E901C0EF
:102B700087E80E94281510E00E942E15F601828732
:102B800087FF04C01F3F11F01F5FF6CF0F900F901B
:102B90000F900F90DF91CF911F910F91FF90DF90D9
:102BA000CF9008950F931F93CF93DF93EC010E9472
:102BB0001F1B8B010E942E158A878F3F49F40E94AC
:102BC0001F1B601B710B6D327140A0F38FE003C0BF
:102BD0008E3F39F08DE08D83CE010E94311580E06B
:102BE00001C081E0DF91CF911F910F910895CF92A5
:102BF000DF92EF92FF920F931F93CF93DF93EC013D
:102C000069010115110509F462C0C801820F931F03
:102C10008130924008F05DC08E81882371F08881F8
:102C20009981AA81BB81481759076A077B0729F454
:102C30008F819885C816D90610F5488359836A8311
:102C40007B838B85833039F039E0440F551F661F35
:102C5000771F3A95D1F79A01AB0161E1CE010E944D
:102C60007015882319F083E08D8333C0CE010E9454
:102C7000D215882371F118861F8281E08E838F819F
:102C800098858C159D0540F40E942E158F8198859E
:102C9000019698878F83F3CF6701E00EF11ECE1463
:102CA000DF0431F00E942E15F60181936F01F7CFFA
:102CB0008F819885800F911F98878F832985222384
:102CC00019F08115924018F0CE010E943B1581E069
:102CD00004C0CE010E94311580E0DF91CF911F9199
:102CE0000F91FF90EF90DF90CF900895EF92FF92B9
:102CF0000F931F93790100E012E020E030E00E9482
:102D0000F7151F910F91FF90EF900895CF92DF92EA
:102D1000EF92FF920F931F93CF93DF9300D0CDB725
:102D2000DEB78C01862F49835A830E94281549817A
:102D3000C42E5A81D52EE12CF12CF60181916F0120
:102D40000E942815FFEFEF1AFF0AE11482E0F8064F
:102D5000A1F78FEF0E9428158FEF0E9428150E947F
:102D60002E15F80182878F71853039F081E18583D6
:102D7000C8010E94311580E001C081E00F900F90E2
:102D8000DF91CF911F910F91FF90EF90DF90CF9047
:102D900008950F931F93CF93DF93EC0189014115A1
:102DA00051056105710511F482E132C08B858330D4
:102DB00039F089E0440F551F661F771F8A95D1F7B8
:102DC0009A01AB0168E1CE010E947015882311F0D1
:102DD00084E01EC0A8016EEFCE010E9486168823F3
:102DE000C1F068E572E0CE010E945515811102C064
:102DF00085E10EC020E030E0A9016DE0CE010E9427
:102E00007015811104C00E942E15882339F084E1C9
:102E10008D83CE010E94311580E004C0CE010E9456
:102E2000311581E0DF91CF911F910F91089520918D
:102E30001D0630911E0628173907B9F49091DB055D
:102E40008091DC05981789F0E091DB05F0E0E35212
:102E5000FA4F80812091DB0530E02F5F3F4F2F73C9
:102E600033272093DB0590E008958FEF9FEF0895BF
:102E700020911D0630911E062817390781F4909184
:102E8000DB058091DC05981751F0E091DB05F0E05F
:102E9000E352FA4F8081992787FD909508958FEF2F
:102EA0009FEF089520911D0630911E0628173907BF
:102EB00071F48091DC052091DB0590E0805C9F4FF0
:102EC000821B910960E470E00E94F71F089580E082
:102ED00090E0089520911D0630911E0628173907AD
:102EE00039F48FB7F8941092DC051092DB058FBF90
:102EF0000895DC015196ED91FC91529720815096F6
:102F00008C91809582238083089520E001972FEF94
:102F10008F3F9207D9F7089520911D0630911E0624
:102F20002817390789F0FC01238D2E7F238F2FB7B7
:102F3000F8941092DC051092DB0590931E068093A6
:102F40001D062FBF81E0089580E00895EF92FF9263
:102F50000F931F93CF93DF93EC018B8DEE85FF854D
:102F60009D8581FF04C08081892329F447C0808129
:102F7000892309F043C08B899C890E94851708E04A
:102F800010E0EE24E394F12C8D899E890E94851730
:102F9000EE85FF8580819D85892311F0FE2803C081
:102FA0008E2D8095F822EE0C0150110901151105A6
:102FB00059F78F89988D0E9485178B8D81FDF0942C
:102FC0008091DC052091DB0590E001968F739927B5
:102FD00030E08217930779F0E091DC05F0E0E352EE
:102FE000FA4FF0828091DC0590E001968F7399276B
:102FF0008093DC0503C08B8D81608B8FDF91CF9137
:103000001F910F91FF90EF900895611102C00C94F1
:103010007917DC015196ED91FC91529720815096E1
:103020008C91282B20830895DF92EF92FF920F93CB
:103030001F93CF93DF93EC01E62E898D9A8D892B18
:1030400039F481E090E09B838A8380E090E04DC07A
:10305000DFB6F8946B8D66956170CE010E940518FD
:10306000898D9A8D05960E9485178B8D08E010E05A
:10307000FF24F39481FF19C08F2D8E2121F0CE0102
:103080000E94791704C061E0CE010E940518898D65
:103090009A8D0E948517FF0C015011090115110529
:1030A00059F7CE010E94791719C08F2D8E2129F072
:1030B00061E0CE010E94051803C0CE010E9479177D
:1030C000898D9A8D0E948517FF0C015011090115F9
:1030D000110559F761E0CE010E940518DFBE898D08
:1030E0009A8D0E94851781E090E0DF91CF911F912A
:1030F0000F91FF90EF90DF90089580911D069091C1
:103100001E06009711F00C94A61708951F920F92B7
:103110000FB60F9211242F933F934F935F936F93AA
:103120007F938F939F93AF93BF93EF93FF930E94EF
:103130007D18FF91EF91BF91AF919F918F917F91FA
:103140006F915F914F913F912F910F900FBE0F9014
:103150001F9018951F920F920FB60F9211242F9364
:103160003F934F935F936F937F938F939F93AF930F
:10317000BF93EF93FF930E947D18FF91EF91BF9152
:10318000AF919F918F917F916F915F914F913F91FF
:103190002F910F900FBE0F901F9018951F920F92B6
:1031A0000FB60F9211242F933F934F935F936F931A
:1031B0007F938F939F93AF93BF93EF93FF930E945F
:1031C0007D18FF91EF91BF91AF919F918F917F916A
:1031D0006F915F914F913F912F910F900FBE0F9084
:1031E0001F9018951F93CF93DF93EC01162F61E08A
:1031F000812F0E94661A6B8D6695617081E0682749
:10320000812F0E949F1A812F90E0FC01EB5BFE4F03
:10321000E491E88BFC01E75AFE4FE491F0E0EE0FF9
:10322000FF1FE958FE4F859194919A8B898BDF910E
:10323000CF911F9108951F93CF93DF93EC01162F29
:1032400060E0812F0E94661A8B8D81FD04C061E0D1
:10325000812F0E949F1A1C87812F90E0FC01EB5B5D
:10326000FE4FE491ED87FC01E75AFE4FE491F0E058
:10327000EE0FFF1FE359FE4F859194919F878E8734
:10328000DF91CF911F910895FF920F931F93CF93DA
:10329000DF93EC01F62E522F1B821A8208EE13E008
:1032A00020E030E00C831D832E833F838BE791E089
:1032B000998388831C8A1B8A1E8A1D8A188E1F8AFE
:1032C0001A8E198E8B8D8E7F50FB81F98B8F642F18
:1032D000CE010E94F2186F2DCE01DF91CF911F9188
:1032E0000F91FF900C941B190F931F93CF93DF93B3
:1032F000EC011A8E198E188E1F8A1E8A1D8AA5E966
:10330000B0E080E090E0FD010591159125913491A8
:10331000041715072607370719F54CE0489F900159
:10332000499F300D1124F901E756FF4F8591949183
:103330009C8B8B8BF901E556FF4F859194919E8B69
:103340008D8BF901E356FF4F85919491988F8F8B68
:1033500021563F4FF901859194919A8F898F08C02A
:1033600001961C968D30910509F0CDCF1C8A1B8AE1
:103370008F89988D892B09F443C08C858631E0F5BF
:1033800020916800883050F091E08E3008F490E091
:1033900081E001C0880F9A95EAF701C084E0822B92
:1033A000809368002C85283038F02E3040F026318C
:1033B00048F0E0E0F0E008C0EDE6F0E005C0EBE644
:1033C000F0E002C0ECE6F0E03081283030F481E03B
:1033D00001C0880F2A95EAF70DC0822F90E02E30A9
:1033E00010F4089701C00E9791E001C0990F8A95DB
:1033F000EAF7892F832B8083898D9A8D0E94851708
:10340000CE01DF91CF911F910F910C948C17FC018D
:103410004485463150F5483028F04E3030F4EBE624
:10342000F0E005C0EDE6F0E002C0ECE6F0E050812F
:10343000483040F481E090E0042E01C0880F0A94E7
:10344000EAF710C0242F30E04E3018F4285031092C
:1034500002C02E50310981E090E0022E01C0880F99
:103460000A94EAF780958523808308952BE731E05D
:10347000FC01318320830C94071A833081F028F4F7
:10348000813099F08230A1F008958730A9F088301A
:10349000B9F08430D1F4809180008F7D03C0809199
:1034A00080008F7780938000089584B58F7702C065
:1034B00084B58F7D84BD08958091B0008F7703C05F
:1034C0008091B0008F7D8093B0000895CF93DF93FB
:1034D00090E0FC01EB5BFE4F2491FC01E75AFE4FAC
:1034E0008491882349F190E0880F991FFC01EF57E0
:1034F000FE4FA591B49189589E4FFC01C591D4917E
:103500009FB7611108C0F8948C91209582238C9309
:10351000888182230AC0623051F4F8948C91322F52
:10352000309583238C938881822B888304C0F89400
:103530008C91822B8C939FBFDF91CF9108950F9335
:103540001F93CF93DF931F92CDB7DEB7282F30E0C4
:10355000F901EF5CFE4F8491F901EB5BFE4F149192
:10356000F901E75AFE4F04910023C9F0882321F0A6
:1035700069830E943D1A6981E02FF0E0EE0FFF1F82
:10358000E958FE4FA591B4919FB7F8948C916111C1
:1035900003C01095812301C0812B8C939FBF0F9096
:1035A000DF91CF911F910F9108951F920F920FB647
:1035B0000F9211242F933F938F939F93AF93BF93B9
:1035C0008091200690912106A0912206B0912306B9
:1035D00030911F0623E0230F2D3720F40196A11D03
:1035E000B11D05C026E8230F0296A11DB11D209331
:1035F0001F068093200690932106A0932206B09385
:1036000023068091240690912506A0912606B0916C
:1036100027060196A11DB11D8093240690932506CF
:10362000A0932606B0932706BF91AF919F918F91EB
:103630003F912F910F900FBE0F901F9018952FB7AD
:10364000F894609120067091210680912206909155
:1036500023062FBF0895789484B5826084BD84B515
:10366000816084BD85B5826085BD85B5816085BD7D
:10367000EEE6F0E0808181608083E1E8F0E0108296
:10368000808182608083808181608083E0E8F0E0D7
:10369000808181608083E1EBF0E0808184608083C1
:1036A000E0EBF0E0808181608083EAE7F0E08081F8
:1036B0008460808380818260808380818160808358
:1036C0008081806880831092C1000895CF92DF923C
:1036D000EF92FF920F931F93CF93DF936C017A01C8
:1036E000EB01E60EF71E00E010E0CE15DF0561F0FD
:1036F0006991D601ED91FC910190F081E02DC60118
:103700000995080F191FF1CFC801DF91CF911F91C3
:103710000F91FF90EF90DF90CF90089561157105A4
:1037200081F0DB010D900020E9F7AD014150510916
:10373000461B570BDC01ED91FC910280F381E02DDB
:10374000099480E090E00895DC01ED91FC910190F6
:10375000F081E02D09940F931F93CF93DF93EC0139
:103760006DE00E94A41B8C016AE0CE010E94A41BA4
:10377000800F911FDF91CF911F910F9108958F922C
:103780009F92AF92BF92CF92DF92EF92FF920F93F0
:103790001F93CF93DF93CDB7DEB7A1970FB6F89401
:1037A000DEBF0FBECDBF7C01C42EE52FCB01D22ED4
:1037B00019A221E02D1510F02AE0D22E8E010F5D06
:1037C0001F4F8D2C912CA12CB12C6C2D7E2FA5017F
:1037D00094010E940B208C2DD29E8019112401503F
:1037E00011098A3014F4805D01C0895CF80180837E
:1037F000211531054105510521F0C22EE32FCA01E3
:10380000E4CFB801C7010E948E1BA1960FB6F894B1
:10381000DEBF0FBECDBFDF91CF911F910F91FF9003
:10382000EF90DF90CF90BF90AF909F908F900895D2
:103830002115310541F4DC01ED91FC910190F081FD
:10384000E02D642F09940C94BF1B0F931F93CF930B
:10385000DF93EC019A01462F50E060E070E00E9497
:10386000181C8C01CE010E94AB1B800F911FDF91B1
:10387000CF911F910F91089580E090E0892B49F03E
:1038800080E090E0892B29F00E94000081110C94C7
:103890000000089508950E942B1B0E944A1C0E945C
:1038A0009D0CCCE3DCE10E94B20A2097E1F30E9478
:1038B0003C1CF9CFCF93DF93EC018881998100976D
:1038C00011F00E940D21198218821D821C821B8218
:1038D0001A82DF91CF9108950F931F93CF93DF93B7
:1038E000EC018B016F5F7F4F888199810E949C2141
:1038F000009731F0998388831B830A8381E001C09C
:1039000080E0DF91CF911F910F910895CF93DF93C6
:10391000EC0188819981892B29F08A819B81861706
:10392000970760F4CE010E946C1C882341F08C81C3
:103930009D81892B19F4E881F981108281E0DF9162
:10394000CF910895EF92FF920F931F93CF93DF9340
:10395000EC017B018A01BA010E94861C811104C01E
:10396000CE010E945A1C07C01D830C83B7018881B9
:1039700099810E947A22CE01DF91CF911F910F9100
:10398000FF90EF900895FC01118210821382128241
:10399000158214826115710559F0FB010190002018
:1039A000E9F7AF0141505109461B570B0C94A21C7B
:1039B00008950C9475200C9475205058BB27AA27A5
:1039C0000ED0FCC1EDD130F0F2D120F031F49F3FA8
:1039D00011F41EF4BDC10EF4E095E7FBB3C1E92F6D
:1039E000FED180F3BA17620773078407950718F0B2
:1039F00071F49EF516C20EF4E0950B2EBA2FA02D91
:103A00000B01B90190010C01CA01A0011124FF278B
:103A1000591B99F0593F50F4503E68F11A16F04086
:103A2000A22F232F342F4427585FF3CF4695379585
:103A30002795A795F0405395C9F77EF41F16BA0B4A
:103A4000620B730B840BBAF09150A1F0FF0FBB1FF8
:103A5000661F771F881FC2F70EC0BA0F621F731F41
:103A6000841F48F4879577956795B795F7959E3F9E
:103A700008F0B3CF9395880F08F09927EE0F97952C
:103A8000879508958DD158F080E891E009F49EEF74
:103A90008ED128F040E851E059F45EEF09C058C1DA
:103AA000C0C1E92FE0789BD168F3092E052AC1F344
:103AB000261737074807590738F00E2E07F8E02574
:103AC00069F0E025E0640AC0EF6307F8009407FAA4
:103AD000DB01B9019D01DC01CA01AD01EF9347D0C3
:103AE0006DD10AD05F91552331F02BED3FE049E4D1
:103AF00050FD49EC63CF0895DF93DD27B92FBF77E1
:103B000040E85FE31616170648075B0710F4D92F45
:103B10008FD19F938F937F936F9336D2E8E6F0E037
:103B20001AD14CD12F913F914F915F9194D1DD23C8
:103B300049F09058A2EA2AED3FE049EC5FE3D078E3
:103B40005D274DDFDF913AC1D9D008F481E00895B7
:103B50000CD034C12CD140F023D130F021F45F3FA0
:103B600019F0F0C051115EC1F3C039D198F3992317
:103B7000C9F35523B1F3951B550BBB27AA27621731
:103B80007307840738F09F5F5F4F220F331F441F76
:103B9000AA1FA9F333D00E2E3AF0E0E830D09150AE
:103BA0005040E695001CCAF729D0FE2F27D0660F9B
:103BB000771F881FBB1F261737074807AB07B0E8DA
:103BC00009F0BB0B802DBF01FF2793585F4F2AF0F0
:103BD0009E3F510568F0B6C025C15F3FECF3983EAB
:103BE000DCF3869577956795B795F7959F5FC9F74D
:103BF000880F911D9695879597F90895E1E0660FD6
:103C0000771F881FBB1F621773078407BA0720F04E
:103C1000621B730B840BBA0BEE1F88F7E0950895B7
:103C200004D06894B111FEC00895E1D088F09F5788
:103C300090F0B92F9927B751A0F0D1F0660F771FF8
:103C4000881F991F1AF0BA95C9F712C0B13081F0D8
:103C5000E8D0B1E00895E5C0672F782F8827B85FD6
:103C600039F0B93FCCF3869577956795B395D9F739
:103C70003EF490958095709561957F4F8F4F9F4F43
:103C80000895E89409C097FB3EF49095809570954F
:103C900061957F4F8F4F9F4F9923A9F0F92F96E998
:103CA000BB279395F695879577956795B795F1110D
:103CB000F8CFFAF4BB0F11F460FF1BC06F5F7F4FAA
:103CC0008F4F9F4F16C0882311F096E911C07723BC
:103CD00021F09EE8872F762F05C0662371F096E8C5
:103CE000862F70E060E02AF09A95660F771F881F94
:103CF000DAF7880F9695879597F90895990F000838
:103D0000550FAA0BE0E8FEEF16161706E807F907AD
:103D1000C0F012161306E407F50798F0621B730B48
:103D2000840B950B39F40A2661F0232B242B252BC9
:103D300021F408950A2609F4A140A6958FEF811D6C
:103D4000811D089597F99F6780E870E060E008950D
:103D50009FEF80EC0895DF93CF931F930F93FF9213
:103D6000EF92DF927B018C01689405C0DA2EEF019F
:103D700072D0FE01E894A591259135914591559118
:103D8000AEF3EF012CDEFE019701A801DA9479F77A
:103D9000DF90EF90FF900F911F91CF91DF910895E9
:103DA00000240A941616170618060906089500241A
:103DB0000A9412161306140605060895092E039494
:103DC000000C11F4882352F0BB0F40F4BF2B11F408
:103DD00060FF04C06F5F7F4F8F4F9F4F089557FD67
:103DE0009058440F551F59F05F3F71F04795880F69
:103DF00097FB991F61F09F3F79F087950895121600
:103E000013061406551FF2CF4695F1DF08C01616AB
:103E100017061806991FF1CF86957105610508945C
:103E20000895E894BB2766277727CB0197F9089573
:103E30009B01AC0160E070E080E89FE389CE0BD08D
:103E4000BDCFAEDF28F0B3DF18F0952309F07ACFAD
:103E50007FCF1124E7CFC3DFA0F3959FD1F3950F58
:103E600050E0551F629FF001729FBB27F00DB11DFE
:103E7000639FAA27F00DB11DAA1F649F6627B00D8E
:103E8000A11D661F829F2227B00DA11D621F739F77
:103E9000B00DA11D621F839FA00D611D221F749F85
:103EA0003327A00D611D231F849F600D211D822FCC
:103EB000762F6A2F11249F5750408AF0E1F0882313
:103EC0004AF0EE0FFF1FBB1F661F771F881F915020
:103ED0005040A9F79E3F510570F034CFA3CF5F3F0C
:103EE000ECF3983EDCF3869577956795B795F79553
:103EF000E7959F5FC1F7FE2B880F911D96958795DB
:103F000097F9089511F40EF423CF41C070DFD0F378
:103F10009923D9F3CEF39F57550B87FF46D0002442
:103F2000A0E640EA900180585695979528F4805C69
:103F3000660F771F881F20F026173707480730F4D1
:103F4000621B730B840B202931294A2BA6951794E9
:103F50000794202531254A2758F7660F771F881FB9
:103F600020F026173707480730F4620B730B840BD9
:103F7000200D311D411DA09581F7B901842F915865
:103F8000880F9695879508959B01AC0158CF9F3F68
:103F900031F0915020F4879577956795B795880F04
:103FA000911D9695879597F9089591505040660F09
:103FB000771F881FD2F708950E944C20A59F900D6F
:103FC000B49F900DA49F800D911D11240895DB01D5
:103FD0008F939F930E94DC1FBF91AF91A29F800D92
:103FE000911DA39F900DB29F900D1124089597FBF2
:103FF000072E16F4009407D077FD09D00E945B20AD
:1040000007FC05D03EF4909581959F4F08957095DB
:1040100061957F4F0895A1E21A2EAA1BBB1BFD01DB
:104020000DC0AA1FBB1FEE1FFF1FA217B307E40797
:10403000F50720F0A21BB30BE40BF50B661F771FEF
:10404000881F991F1A9469F76095709580959095CF
:104050009B01AC01BD01CF010895052E97FB1EF415
:1040600000940E94442057FD07D00E940B2007FCBB
:1040700003D04EF40C9444205095409530952195F2
:104080003F4F4F4F5F4F0895909580957095619584
:104090007F4F8F4F9F4F0895A29FB001B39FC001E4
:1040A000A39F700D811D1124911DB29F700D811D64
:1040B0001124911D0895AA1BBB1B51E107C0AA1F23
:1040C000BB1FA617B70710F0A61BB70B881F991FB9
:1040D0005A95A9F780959095BC01CD010895EE0FF2
:1040E000FF1F0590F491E02D0994CF93DF93823068
:1040F000910510F482E090E0E0912A06F0912B0601
:1041000020E030E0A0E0B0E0309739F1408151810B
:1041100048175907B8F04817590771F482819381FD
:10412000109729F013969C938E9312972CC090931E
:104130002B0680932A0627C02115310531F042173E
:10414000530718F0A901DB0101C0EF019A01BD017D
:10415000DF010280F381E02DD7CF21153105F9F081
:10416000281B390B2430310580F48A819B8161152D
:10417000710521F0FB019383828304C090932B0689
:1041800080932A06FE01329644C0FE01E20FF31F1F
:104190008193919322503109398328833AC0209129
:1041A000280630912906232B41F4209102013091F9
:1041B00003013093290620932806209100013091B5
:1041C00001012115310541F42DB73EB7409104019D
:1041D00050910501241B350BE0912806F09129062A
:1041E000E217F307A0F42E1B3F0B2817390778F0CE
:1041F000AC014E5F5F4F2417350748F04E0F5F1F2D
:1042000050932906409328068193919302C0E0E0E1
:10421000F0E0CF01DF91CF910895CF93DF93009726
:1042200009F487C0FC01329713821282C0912A06DA
:10423000D0912B06209781F420813181280F391FDE
:1042400080912806909129068217930779F5F093BB
:104250002906E09328066DC0DE0120E030E0AE17AD
:10426000BF0750F412964D915C9113979D01411533
:10427000510509F1DA01F3CFB383A2834081518163
:10428000840F951F8A179B0771F48D919C9111974C
:10429000840F951F02969183808312968D919C9135
:1042A0001397938382832115310529F4F0932B060C
:1042B000E0932A063EC0D9011396FC93EE93129721
:1042C0004D915D91A40FB51FEA17FB0779F480812A
:1042D0009181840F951F0296D90111969C938E931C
:1042E0008281938113969C938E931297E0E0F0E085
:1042F0008A819B81009719F0FE01EC01F9CFCE0174
:10430000029628813981820F931F209128063091CF
:1043100029062817390769F4309729F410922B06DB
:1043200010922A0602C013821282D0932906C093EB
:104330002806DF91CF910895A0E0B0E0E2EAF1E233
:104340000C94B624EC01CB01209719F40E9475203F
:10435000B8C0FE01E60FF71F9E0122503109E21797
:10436000F30708F4ACC0D9010D911C911197061701
:104370001707B8F00530110508F49FC0A801445094
:1043800051094617570708F498C002501109061B37
:10439000170B019311936D937C93CF010E940D2114
:1043A0008CC05B01A01AB10A4E01800E911EA09133
:1043B0002A06B0912B06612C712C60E070E01097FA
:1043C00009F449C0A815B905C9F5ED90FC901197FD
:1043D000670142E0C40ED11CCA14DB0478F1470126
:1043E0008A189B08640142E0C40ED11C1296BC904E
:1043F00012971396AC91B5E0CB16D10440F0B2827F
:10440000A38391828082D9018D939C9309C00E5F12
:104410001F4F0E0D1F1DF90111830083EB2DFA2F85
:104420006115710531F0DB011396FC93EE93129741
:1044300044C0F0932B06E0932A063FC06D917C9117
:1044400011976616770608F43B01BD0112960D9090
:10445000BC91A02DB4CF60912806709129066815F3
:104460007905E9F468167906D0F44091000150917D
:1044700001014115510541F44DB75EB7609104014A
:1044800070910501461B570BE417F507C0F4F09334
:104490002906E0932806F901918380830EC00E94CB
:1044A00075207C01009759F0A801BE010E9471227D
:1044B000CE010E940D21C70104C0CE0102C080E0E0
:1044C00090E0CDB7DEB7EEE00C94D224FC0105906D
:1044D000615070400110D8F7809590958E0F9F1F06
:1044E0000895FB01DC0102C001900D924150504043
:1044F000D8F70895FB01DC0101900D920020E1F74F
:104500000895FC016150704001900110D8F780952A
:1045100090958E0F9F1F0895AEE0B0E0E2E9F2E2C1
:104520000C94C0240D891E8986E08C831A8309832C
:104530008FEF9FE79E838D83AE01475E5F4F6F894C
:10454000788DCE0101960E94AE22EF81F885E00FB2
:10455000F11F10822E96E4E00C94DC24ACE0B0E075
:10456000E4EBF2E20C94B2247C016B018A01FC01C1
:1045700017821682838181FFBDC1CE0101964C0155
:10458000F7019381F60193FD859193FF81916F016E
:10459000882309F4ABC1853239F493FD859193FFEB
:1045A00081916F01853229F4B70190E00E94802447
:1045B000E7CF512C312C20E02032A0F48B3269F06F
:1045C00030F4803259F0833269F420612CC08D328E
:1045D00039F0803339F4216026C02260246023C082
:1045E000286021C027FD27C030ED380F3A3078F41D
:1045F00026FF06C0FAE05F9E300D1124532E13C033
:104600008AE0389E300D1124332E20620CC08E3289
:1046100021F426FD6BC1206406C08C3611F420689D
:1046200002C0883641F4F60193FD859193FF819194
:104630006F018111C1CF982F9F7D9554933028F43D
:104640000C5F1F4FFFE3F9830DC0833631F08337D2
:1046500071F0833509F05BC022C0F8018081898345
:104660000E5F1F4F44244394512C540115C0380150
:10467000F2E06F0E711CF801A080B18026FF03C02C
:10468000652D70E002C06FEF7FEFC5012C870E949F
:1046900081222C0183012C852F77222E17C038010F
:1046A000F2E06F0E711CF801A080B18026FF03C0FC
:1046B000652D70E002C06FEF7FEFC5012C870E946F
:1046C00066222C012C852068222E830123FC1BC02E
:1046D000832D90E048165906B0F4B70180E290E0CF
:1046E0000E9480243A94F4CFF50127FC859127FE9F
:1046F00081915F01B70190E00E94802431103A94CB
:10470000F1E04F1A51084114510471F7E5C08436A5
:1047100011F0893639F5F80127FF07C060817181F2
:10472000828193810C5F1F4F08C06081718188274F
:1047300077FD8095982F0E5F1F4F2F76B22E97FF33
:1047400009C090958095709561957F4F8F4F9F4FD1
:104750002068B22E2AE030E0A4010E94F300A82EC7
:10476000A81844C0853729F42F7EB22E2AE030E005
:1047700025C0F22FF97FBF2E8F36C1F018F488358F
:1047800079F0B4C0803719F0883721F0AFC02F2FEF
:104790002061B22EB4FE0DC08B2D8460B82E09C0EE
:1047A00024FF0AC09F2F9660B92E06C028E030E093
:1047B00005C020E130E002C020E132E0F801B7FEA0
:1047C00007C060817181828193810C5F1F4F06C099
:1047D0006081718180E090E00E5F1F4FA4010E9414
:1047E000F300A82EA818FB2DFF77BF2EB6FE0BC036
:1047F0002B2D2E7FA51450F4B4FE0AC0B2FC08C0C5
:104800002B2D2E7E05C07A2C2B2D03C07A2C01C0B7
:10481000752C24FF0DC0FE01EA0DF11D808180334F
:1048200011F4297E09C022FF06C07394739404C05A
:10483000822F867809F0739423FD13C020FF06C0F1
:104840005A2C731418F4530C5718732C731468F4FF
:10485000B70180E290E02C870E94802473942C851D
:10486000F5CF731410F4371801C0312C24FF12C097
:10487000B70180E390E02C870E9480242C8522FFE2
:1048800017C021FF03C088E590E002C088E790E0F0
:10489000B7010CC0822F867859F021FD02C080E25A
:1048A00001C08BE227FD8DE2B70190E00E948024D9
:1048B000A51438F4B70180E390E00E9480245A9454
:1048C000F7CFAA94F401EA0DF11D8081B70190E0C1
:1048D0000E948024A110F5CF332009F451CEB701F6
:1048E00080E290E00E9480243A94F6CFF70186811E
:1048F000978102C08FEF9FEF2C96E2E10C94CE24BB
:104900000F931F93CF93DF93182F092FEB018B8108
:1049100081FD03C08FEF9FEF20C082FF10C04E814A
:104920005F812C813D81421753077CF4E881F98136
:104930009F012F5F3F4F39832883108306C0E8858E
:10494000F985812F0995892B29F72E813F812F5FCA
:104950003F4F3F832E83812F902FDF91CF911F9167
:104960000F9108952F923F924F925F926F927F9294
:104970008F929F92AF92BF92CF92DF92EF92FF926F
:104980000F931F93CF93DF93CDB7DEB7CA1BDB0B1B
:104990000FB6F894DEBF0FBECDBF09942A883988C0
:1049A00048885F846E847D848C849B84AA84B984C7
:1049B000C884DF80EE80FD800C811B81AA81B981D3
:1049C000CE0FD11D0FB6F894DEBF0FBECDBFED01E7
:1049D000089511E0C0E9D1E004C0FE010E947120F9
:0C49E0002296C239D107C9F7F894FFCF26
:1049EC0000002C062000FFFFFFFF253032642F252E
:1049FC003032642F253032642D253032643A253024
:104A0C0032643A2530326400004750533A25733AE9
:104A1C00256C643A256C643A256C643A256C643ACE
:104A2C00256C643A25753A2575000025782E257875
:104A3C002E25782E257800000000000000AD0D66B4
:104A4C001B380D500D770D950D280D6B0E670F0053
:104A5C000000001715661B000000001418661B529E
:084A6C0017171738176A17002D
:00000001FF
